:100000000C940E010C9455010C9455010C9455015F
:100010000C9455010C9455010C9455010C94550108
:100020000C9455010C9455010C949A1B0C946E1C65
:100030000C94C6160C9455010C9455010C94550162
:100040000C9455010C9455010C9455010C945501D8
:100050000C9455010C941D170C9455010C945501EA
:100060000C9455010C9455010C9455010C945501B8
:100070000C9455010C9455010C9455010C945501A8
:100080000C9455010C9455010C9455010C94550198
:100090000C9455010C9455010C9455010C94550188
:1000A0000C9455010C9455010C94550114001A0040
:1000B0000800150017001C0018000C0012001300A7
:1000C00004001600070009000A000B000D000E00D6
:1000D0000F0000001D001B000600190005001100A4
:1000E00010000000000000001203630061007200B5
:1000F000700061006C0032003600000012037300D3
:1001000065007400680070006F006C0079000000EA
:100110000403090409023B00020100A0FA090400DB
:100120000001030101000921110100012240000723
:1001300005810308000A0904010001030000000909
:100140002111010001227B000705820320000A1211
:1001500001000200000008EDFE00000100010200A5
:100160000105010902A10185020901A10005091982
:10017000012908150025019508750181020501096D
:100180003009311581257F950275088106093815DA
:1001900081257F950175088106050C0A38021581B5
:1001A000257F950175088106C0C005010980A10160
:1001B000850319012AB700150126B70095017510AE
:1001C0008100C0050C0901A101850419012AA002C2
:1001D000150126A002950175108100C005010906D0
:1001E000A101050719E029E715002501950875010A
:1001F00081029501750881010507190029FF150085
:1002000026FF009506750881000508190129059546
:100210000575019102950175039101C011241FBE5E
:10022000CFEFDAE0DEBFCDBF04B603FE27C080917A
:10023000440290914502A0914602B0914702873056
:10024000904BA740B04BD1F410924402109245025B
:10025000109246021092470214BE84B7877F84BF73
:100260000FB6F894A8958091600088618093600033
:10027000109260000FBEE0E0F8E3099511E0A0E005
:10028000B1E0E6E8FDE302C005900D92A838B107A1
:10029000D9F722E0A8E8B1E001C01D92A434B2076A
:1002A000E1F70E940D110C949D1E0C94000081E05A
:1002B000089581E008950C94590108950C945D010E
:1002C0001F93CF93DF9300D000D00F92CDB7DEB74E
:1002D00049835A836B8330918A0189819A813111D4
:1002E0001DC06623B9F02223A9F00E94B107182F80
:1002F000682F89819A810E945D0769817A81812FA7
:100300000F900F900F900F900F90DF91CF911F9152
:100310000C947F0E0E948907182FEFCF0E94B1071F
:1003200069817A81EDCFFC01262F40815181628164
:10033000738184810C94600181E00895CF93DF93F1
:10034000EC0160E00E949301BE01DF91CF910C941B
:100350005E010E948B0F0E9426020C94B00F0C9439
:10036000B30F80E00C942702089508950E940606BA
:100370000E94B5012FEF84E39CE021508040904023
:10038000E1F700C000000C9441170F931F93CF9327
:10039000DF938C0161E00E949301EC01B8010E949F
:1003A0005B018823A9F1B801CE010E94651588235D
:1003B00079F1B801CE010E94A513882349F1B80153
:1003C000CE010E94CF14882319F1F801828188237D
:1003D00061F0CB35FDE5DF0721F170F4C115ECE5E7
:1003E000DE07A1F0CF3DDC45C9F0C801DF91CF9118
:1003F0001F910F910C945701CC358DE5D807A1F0D2
:10040000CD35DD4591F70E94D90BEFCF0E94B601A3
:1004100080E0DF91CF911F910F9108950E94930C7E
:10042000F7CF0E94E20BE1CF0E94E50BDECF0C94E8
:10043000B4010E94C1150E9427020C94170208956E
:100440000C941F0281E008950C9422020895CF932A
:10045000C82F0E9420028C2FCF910C942402CF939E
:10046000DF93CDB7DEB72B970FB6F894DEBF0FBE84
:10047000CDBF4F83588769877A878B8761110E9428
:10048000340B1E821D8285E0FE013796DE01119637
:1004900001900D928A95E1F78C819D81892B89F4D9
:1004A00049815A816B817C818D819E810E94550A90
:1004B0002B960FB6F894DEBF0FBECDBFDF91CF9164
:1004C000089589819A8189238F3F51F3CE01019646
:1004D0000E949C018111E4CFEBCFFC0180819181CE
:1004E0000C94F307CF93C82F882309F48BC082386C
:1004F000C1F40E94C11581FD85C089E30E94EF0A05
:100500000E94570B2FEF81EE94E0215080409040E5
:10051000E1F700C0000089E30E94F60ACF910C9435
:10052000570B8338A1F40E94C11580FD6BC083E591
:100530000E94EF0A0E94570B2FEF81EE94E02150AA
:1005400080409040E1F700C0000083E5E5CF8438AB
:10055000A1F40E94C11582FD55C087E40E94EF0AF4
:100560000E94570B2FEF81EE94E021508040904085
:10057000E1F700C0000087E4CFCF8CEF8C0F813A09
:1005800090F46C2F80910201909103010E94241637
:10059000882329F08C2F0E94F60A0E94570B8C2F7B
:1005A0000E94EF0ABBCF80E28C0F883048F4C770FE
:1005B00081E001C0880FCA95EAF70E94170BAECF01
:1005C000EBE5EC0FE33040F4F0E0E95BFE4F8081B7
:1005D00090E0CF910C94E615E8E5EC0FE73150F48C
:1005E000F0E0EE0FFF1FE75EFE4F80819181CF911B
:1005F0000C94FC15CD3E30F08C2F0E949D11CF91B4
:100600000C947012CF910895882309F452C0823857
:1006100071F40E94C11581FF4CC089E30E94EF0A6A
:100620000E94570B89E30E94F60A0C94570B8338FB
:1006300059F40E94C11580FF3CC083E50E94EF0A77
:100640000E94570B83E5EFCF843859F40E94C115FF
:1006500082FF2FC087E40E94EF0A0E94570B87E4B5
:10066000E2CF9CEF980F913AF0F290E2980F983019
:1006700050F4877091E001C0990F8A95EAF7892FAD
:100680000E941D0BD2CF9BE5980F933020F490E091
:1006900080E00C94E61598E5980F973120F490E0EF
:1006A00080E00C94FC158D3E20F00E94F7110C9414
:1006B000701208951F93CF93DF93182FEB010E94C0
:1006C0007202209731F4812FDF91CF911F910C940A
:1006D00004038FE99FE00197F1F700C00000219724
:1006E000F0CF70E060E0893311F460E570E00C94C5
:1006F0005A03882321F00E94170B0C94570B08957E
:10070000882321F00E941D0B0C94570B0895BF9273
:10071000CF92DF92EF92FF920F931F93CF93DF93CD
:100720006C01D62FC72FFC011281F580F2949FE057
:10073000F9220E940D0BE82E8823B9F0E12E112337
:10074000A1F08C2F807F803421F080E28D0F8830E3
:10075000D0F08091260282FD16C082E00E94A80B94
:100760000E940D0B91E0E82EE926BC2EB2948FE09A
:10077000B822FBE0FB1508F468C0EB2DF0E0E15671
:10078000F14E0C94341EE12CF0CF0C2F0F70C07F73
:1007900011F00295007F112399F0002359F080E2B7
:1007A0008D0F883010F0D11107C0802F0E94170BD9
:1007B0000E94570B8D2F41C0802F0E94270BF8CF2E
:1007C0008D2F0E940403002309F43FC080E28D0FA7
:1007D000883010F0D11104C0802F0E941D0B03C07F
:1007E000802F0E942D0B0E94570B2FC00C2F0F70D3
:1007F000C07FC03211F00295007FDD2381F0D1303F
:1008000009F469C0112309F473C0FF2009F469C019
:10081000F601858180FFCECF8F70858362C0809185
:10082000260282FF38C0112359F0002329F0802FBF
:100830000E94170B0E94570B80E00E94720205C0B5
:1008400080E00E9404030111C7CFEB2DE850FF0B9D
:10085000349720F40E94C1150E942702EE2009F46B
:1008600072C10E94090B80FD6EC1F60112820E94C6
:10087000030B0E94C106C6010E94C4050E94030B1F
:10088000DF91CF911F910F91FF90EF90DF90CF906C
:10089000BF900C94E206112389F0F11006C00E946B
:1008A0003A0B802B0E947903D0CF21E0F212F7CFD0
:1008B0000E943A0B802B0E94400BC7CFF11006C05C
:1008C0000E944D0B802F0E948003BFCF31E0F316B2
:1008D00009F4BBCFF5CF112331F085E08F1508F473
:1008E000B4CF802FDFCF94E09F1508F4AECFEACFCE
:1008F000FF2041F3D93349F4FFEF27EE33E0F15005
:1009000020403040E1F700C000008D2F0E9404031A
:100910009CCF8C2F86958695837069F0813009F085
:1009200094CF8D2F9C2F9370111102C090E080E026
:100930000E94FC158ACF8D2F9C2F9370111102C03D
:1009400090E080E00E94E61580CF8D2F112329F0E2
:100950000E949D110E94701278CF0E94F711FACF69
:100960008C2F837009F041C011116FCF4D2F42952C
:1009700046954770440F440F0D2F0F7010E030E084
:1009800020E0042E04C0000F111F221F331F0A9401
:10099000D2F760E070E0CB01D4FF0FC06FE070E0F1
:1009A00080E090E004C0660F771F881F991F4A956A
:1009B000D2F76095709580959095C695C695C37051
:1009C000602B712B822B932BC23049F058F4C1302D
:1009D00019F00E94730639CF0E94610636CF0E943B
:1009E000850633CF0E945F0630CF8695112311F024
:1009F0008C2F8170882309F428CF4D2F429546957E
:100A00004770440F440F0D2F0F7010E030E020E0CE
:100A1000042E04C0000F111F221F331F0A94D2F7A7
:100A200060E070E0CB01D4FF0FC06FE070E080E0C9
:100A300090E004C0660F771F881F991F4A95D2F770
:100A40006095709580959095C695C695C370602BFE
:100A5000712B822B932BC23049F058F4C13019F01E
:100A60000E943807F2CE0E942607EFCE0E944A0766
:100A7000ECCE0E949B06E9CECF70112329F08C2F7B
:100A80000E94C1068D2F0ECF8D2F0E9480038C2FC8
:100A90000E94E206DACED23F51F160F4D03FB9F0C5
:100AA000D13F81F0112309F449C0F11083CE8C2F7E
:100AB0008F7121C0D33F11F1D43FA1F7809126025D
:100AC00082FF26C08C2F8F71112311F314C01123C4
:100AD00049F084E08F1508F4B8CE8C2F8F710E94F6
:100AE0000507B3CE95E09F1508F4AFCEF6CF8C2F57
:100AF0008F711111CDCF0E94C106A7CE112329F00D
:100B00008C2F8F710E94AC06A0CE0E94A7069DCEAE
:100B1000112349F0CF718C2F0E94C10663E08C2F06
:100B20000E948D0B92CE81E00E94A80BE1E0EF15B0
:100B300008F08BCE82E00E94A80B87CEF110DACEAF
:100B40008C2F8F71A5CFDF91CF911F910F91FF90C7
:100B5000EF90DF90CF90BF9008950F931F93CF93A6
:100B6000DF93EC01688179818A810E94FD078C0105
:100B70000E945C070E945E06B801CE01DF91CF9112
:100B80001F910F910C948703CF93DF93EC018B811E
:100B90009C81892B29F08881998189238F3F59F481
:100BA000DF91CF910895CE010E94AD05CE01DF9176
:100BB000CF910C949E01CE010E94C5018111F3CF0B
:100BC0000E940D0B882361F38A81882349F3809169
:100BD000260282FDE5CF82E0DF91CF910C94A80B35
:100BE00090E080E00E94E61590E080E00E94FC1515
:100BF0000E94340B0E94370B0E94570B0E949713E0
:100C00000C9470120E94FD0A0C94F0050E94240BB3
:100C10000C940206E92FE295EF70E250EE3070F48A
:100C2000F0E0E555F14E0C94341E803F19F020F4AD
:100C3000883E20F481E00895843FE1F380E0089548
:100C4000883EC0F3813FD1F7F5CF93FB882780F929
:100C50000895FC01808191810E94F3070C940A069B
:100C6000CF93DF9300D000D00F92CDB7DEB70F90B7
:100C70000F900F900F900F90DF91CF910895CF9329
:100C8000DF9300D000D000D0CDB7DEB726960FB6E8
:100C9000F894DEBF0FBECDBFDF91CF9108950895C8
:100CA0000C944F060E9450066093A3017093A40118
:100CB0008093A5019093A6010C94F00508950C94DF
:100CC00052060F931F930091A3011091A40120914C
:100CD000A5013091A601602B712B822B932B1F91C4
:100CE0000F910C9452060F931F930091A301109142
:100CF000A4012091A5013091A601602371238223D4
:100D000093231F910F910C9452060F931F93009100
:100D1000A3011091A4012091A5013091A6016027A3
:100D20007127822793271F910F910C9452060C94E0
:100D30004F060C9497060E94990660939F0170934A
:100D4000A0018093A1019093A2010C94F00560E0B2
:100D500070E0CB010C949B060F931F9341E050E091
:100D600060E070E08A019B0104C0000F111F221F88
:100D7000331F8A95D2F7C901B8011F910F910C94C6
:100D80009B060F931F9341E050E060E070E004C0C9
:100D9000440F551F661F771F8A95D2F780919F01D8
:100DA0009091A001A091A101B091A2018A019B01A3
:100DB000082B192B2A2B3B2BC901B8011F910F912E
:100DC0000C949B060F931F9341E050E060E070E0AD
:100DD00004C0440F551F661F771F8A95D2F7CB01B9
:100DE000BA01609570958095909500919F01109142
:100DF000A0012091A1013091A201602371238223DF
:100E000093231F910F910C949B060F931F9341E026
:100E100050E060E070E004C0440F551F661F771F6C
:100E20008A95D2F780919F019091A001A091A10194
:100E3000B091A2018A019B01082719272A273B2785
:100E4000C901B8011F910F910C949B060F931F933A
:100E500000919F011091A0012091A1013091A20168
:100E6000602B712B822B932B1F910F910C949B065F
:100E70000F931F9300919F011091A0012091A10158
:100E80003091A20160237123822393231F910F913C
:100E90000C949B060F931F9300919F011091A0014A
:100EA0002091A1013091A201602771278227932709
:100EB0001F910F910C949B0608952AE0929F800D3C
:100EC0001124982F977041E001C0440F9A95EAF7DA
:100ED00086958695869595E0899FF0011124E557C2
:100EE000FE4F90E080E070E05191DF0111979B018F
:100EF000082E02C0369527950A94E2F721702195B5
:100F00002527242325272C9301968530910561F709
:100F100008952AE0929F800D1124982F977086954E
:100F20008695869525E0829FF0011124E557FE4FB6
:100F300050E040E080E0219130E0092E02C036957B
:100F400027950A94E2F721703327042E01C0220F5F
:100F50000A94EAF7822B4F5F5F4F4530510559F7EE
:100F60000895BF92CF92DF92EF92FF920F931F935B
:100F7000CF93DF938C01C0909F01D090A001E090AF
:100F8000A101F090A2018091A3019091A401A091F0
:100F9000A501B091A601C82AD92AEA2AFB2ACFE1E5
:100FA000D0E0BC2ED701C6010C2E04C0B695A79583
:100FB000979587950A94D2F780FD0EC0219788F700
:100FC000B12C8B2DDF91CF911F910F91FF90EF905E
:100FD000DF90CF90BF900895B8018C2F0E94930EA0
:100FE000019761F3EECFCF93DF93EC010E94B1073D
:100FF000BE01DF91CF910C94930E1F93CF93DF939B
:10100000EB0190918A01992331F0CB01DF91CF91CF
:101010001F910C94F307882379F0CB010E94B1074C
:10102000182F682FCE010E945D07BE01812FDF912E
:10103000CF911F910C94930ECB010E948907182F1A
:10104000F4CF1F93CF93DF93C091A70116E0809157
:10105000A8018C1304C0DF91CF911F910895D0E0B7
:101060001C9FF0011D9FF00D1124E755FE4F40819C
:10107000518162817381848195810E943F0621960E
:10108000C770E5CF4091D9015091DA016091DB0141
:101090007091DC018091DD019091DE010C943F069E
:1010A000FF920F931F93CF93DF938091DE01807F98
:1010B000D1F48091DB018823B1F08091A7011091D8
:1010C000A8016091D9017091DA01A091DC01B09181
:1010D000DD01062F0723C0910001D091010196E0A8
:1010E000F92E181306C0DF91CF911F910F91FF9039
:1010F000089590E0109711F00F3F19F40196877052
:10110000F0CFF89E9001F99E300D1124F901E755BA
:10111000FE4F41814713F2CF40814613EFCF42810A
:101120004111ECCF438154814A1B5B0B4C175D0787
:1011300028F78091DE018F7080618093DE01F901D4
:10114000E255FE4F80818F708061808389ED91E050
:101150000E94C405DF91CF911F910F91FF900C94D5
:101160002108AF92BF92CF92DF92EF92FF920F933E
:101170001F93CF93DF93CDB7DEB761970FB6F89487
:10118000DEBF0FBECDBF8C0185E0F801DE011D96EC
:1011900001900D928A95E1F7F801E28089EDC82E61
:1011A00081E0D82E6091DC017091DD01611571053F
:1011B00009F45FC19091D9012091DA01892F82232E
:1011C0008F3F09F456C140815181A380B480F090D3
:1011D000DB01F501E61BF70BBF01E0910001F09187
:1011E0000101FF2009F4F6C08091DE01382F307F25
:1011F0006E177F0708F0AFC0311179C0FE2C2513A0
:1012000023C0941321C0E1101FC08F7080618093B0
:10121000DE010E944208C6010E94C4058091DE01E1
:10122000F80185838F2D61960FB6F894DEBF0FBE4F
:10123000CDBFDF91CF911F910F91FF90EF90DF9085
:10124000CF90BF90AF900895AB2829F0842F8523CD
:101250008F3F09F027C180E0F82FF170DF2E80FF6B
:101260003CC08091A7012091A80136E0821315C0EF
:101270004D875E878D859E850E94F307292F2295D5
:101280002F702230F0F0243018F59F70F1F0F80143
:101290009581907FD1F4D12C1EC090E0389FF00151
:1012A000399FF00D1124E755FE4F6181651306C08B
:1012B0006081641303C062816E110FC00196877054
:1012C000D5CF9F7011F0882331F3805E883018F3FA
:1012D000C8010E94C405FD2CA5CFEE2009F4A2CFC1
:1012E0008091DE0181608093DE01F12C9BCF25137C
:1012F00006C0941304C0F801EE2009F487C0C801A9
:101300000E942906882319F1EE2009F18091DE015F
:10131000803270F02091D9013091DA0138872F8323
:101320001986BB86AA868C87CE0107960E94C405C3
:1013300086E0F801A9EDB1E001900D928A95E1F700
:101340000E9450080E944208FF24F3946BCFC8010A
:101350000E94C405F9CF311113C07A2DB98AA88A29
:101360006E2D89890E94300689ED91E00E94C405A6
:1013700086E0F60111928A95E9F70E944208B5CFFE
:1013800025130FC094130DC0E1100BC0F801858325
:10139000C8010E94C40586E0F60111928A95E9F71A
:1013A00041CFC8010E942906882389F2EE2079F2F4
:1013B0008091DE01803208F4BBCF2091D9013091B9
:1013C000DA013A8329831B82BD82AC828E83CE01EF
:1013D0000196ACCF6E177F0708F03EC0FE2CEE20C2
:1013E00009F4B5CF25132AC0941328C08091DE01DB
:1013F00080FD1BC0982F907FC1F0F8018583903F3E
:1014000031F0982F907F905F8F70892B8583C80172
:101410000E94C40586E0F801A9EDB1E001900D92AB
:101420008A95E1F70E944208FDCE86E0F801A9ED19
:10143000B1E001900D928A95E1F7F4CEC8010E94C7
:101440002906811175CF8091DE0181608093DE01D4
:10145000C8010E94C405E6CE7A2DB98AA88A6E2DED
:1014600089890E94300686E0F60111928A95E9F793
:10147000D9CFEE2009F46BCFC8010E942906F82EBF
:10148000882309F464CF86E0F801A9EDB1E001906A
:101490000D928A95E1F789ED91E00E946D020E941C
:1014A0005008C0CF81E08E25D7CE1F93CF93DF9316
:1014B000CDB7DEB72C970FB6F894DEBF0FBECDBF09
:1014C0004F83588769877A878B879C87CE010796D9
:1014D0000E94B108882369F08A859B85892B39F0A1
:1014E0004F815885842F85238F3F09F071C016E006
:1014F0005FC086E0FE013796DE01119601900D92E5
:101500008A95E1F78A859B85892B89F38F81988558
:1015100089238F3F61F32091A80130E0C901019632
:10152000877099274091A7014817190671F40E9406
:1015300006061092A8011092A70186E0E9EDF1E0FD
:10154000DF011D928A95E9F7D2CF96E0929FD001F4
:10155000939FB00D1124A755BE4FFE013196019007
:101560000D929A95E1F78093A8010E942108BFCFC0
:10157000819FC001112487559E4F0E94B108882386
:10158000E9F0E091A7011E9FF0011124E755FE4FFD
:101590004081518162817381848195810E943F06DF
:1015A0008091A70190E00196877099278093A70109
:1015B0008091A7019091A8018913DACF2C960FB6DC
:1015C000F894DEBF0FBECDBFDF91CF911F9108957C
:1015D00069857A858B859C850E943F0688CF682F18
:1015E00080910201909103010C945A16682F80910A
:1015F0000201909103010C945C168091020190917C
:1016000003010C945E168091DF0185958595859583
:1016100008958091DF01877008959091DF019770A0
:1016200081E009F480E008958091EB0108959091A4
:10163000EB01892B8093EB01089580959091EB014C
:1016400098239093EB0108951092EB0108959091E7
:10165000EA01892B8093EA01089580959091EA012F
:1016600098239093EA0108951092EA010895109248
:10167000E90108958091E001089508950C943D0BCF
:101680009091260292FD08C09091E001981721F0F8
:101690008093E0010C943E0B08958091E001882333
:1016A00029F01092E00180E00C943E0B0895E09147
:1016B0000201F09103018091EB018083E09102012E
:1016C000F091030180819091EA01892B8083E09160
:1016D0000201F091030180819091E901892B8083BF
:1016E0009091E001992381F0E0910201F0910301D2
:1016F0008081892B808380910201909103010E9457
:10170000121681110E944D0B8091020190910301EC
:101710000C94CD1508950C948A0B9091260292FD9D
:1017200010C098E0899F90011124622B6093DF0123
:101730000E94C1068091DF018595859585950C9461
:101740008B0B0C94C1061092DF0180E00C948B0B84
:101750009091DF01809589238093DF01282F2770E6
:1017600091F4282F082E000C330B9217130659F012
:101770009091260292FD07C08595859585950E94DA
:10178000E2060C94A30B08959091260292FB222767
:1017900020F9281769F080FB92F990932602809136
:1017A0002502909126020E940F0C82E00C94A80B57
:1017B00008958091260282FB882780F991E089278D
:1017C0000C94C40B81E00C94C40B80E00C94C40B0B
:1017D0006FEF7FEF90E080E00C94871E90E080E058
:1017E0000E94631E21E0893E9E4F09F020E0822F77
:1017F000089582E090E00C945B1E83E090E00C94EE
:101800005B1ECF9384E090E00E945B1EC82F82E2B3
:1018100090E00E945B1E982F8C2FCF910895CF935C
:10182000C92F682F84E090E00E94691E6C2F82E22D
:1018300090E0CF910C94691EAB01BC018FE090E069
:101840000C947B1EAB01BC0183E190E00C947B1EE9
:1018500060E070E0CB010C94220C60E070E0CB0102
:101860000E941C0C0C94280C69EE7EEF90E080E046
:101870000E94871E60E082E090E00E94691E60E0A6
:1018800083E090E00E94691E1092A3011092A401CF
:101890001092A5011092A60160E084E090E00E9401
:1018A000691E60E082E290E00E94691E60E085E0CF
:1018B00090E00E94691E60E086E090E00E94691E50
:1018C0006FEF87E090E00E94691E40E050E0BA01AF
:1018D00088E090E00E947B1E60E08DE090E00E9436
:1018E000691E40E050E0BA0188E190E00E947B1E52
:1018F00060E087E190E00E94691E40E050E0BA019C
:101900008CE190E00E947B1E70E060E080E290E05D
:101910000E94871E40E050E0BA0188E190E00E94FA
:101920007B1E0C942D0C0C94340C682F8EE090E0F0
:101930000C94691E0E9402176093F7017093F801DE
:101940008093F9019093FA016093F3017093F4018D
:101950008093F5019093F601089585B7806885BF5F
:1019600085B7806885BF0895089508950C94B40CD8
:1019700008950C94B80C0E94AD0C81E79FE00E9482
:10198000B7150E94B50C0C94B60C81E008950C9428
:10199000C50C089508950E94C90C0C94CA0C0E94AD
:1019A000ED160E9467100C94B90C8F929F92AF9223
:1019B000BF92CF92DF92EF92FF920F931F93CF933C
:1019C000DF93CDB7DEB72A970FB6F894DEBF0FBE10
:1019D000CDBF0E947C1081110E949A0C5DEE852E75
:1019E00051E0952E10E000E0A02E802F0E94B50F50
:1019F0006C01F401E190F1904F01E816F90609F449
:101A00005CC08091FB0181FD0E94BE0FC7018C2547
:101A10009D25B12CEE24E394F12C9C012E213F2135
:101A2000232B09F444C00E94C70C8823A9F0BE826E
:101A3000AF82CE20DF2081E0CD2809F480E08887C6
:101A40000E94F6168160782F9A8789874E815F8180
:101A500068858A850E942F02000F111FF801E3514B
:101A6000FE4F80819181E826F926F182E0820E9472
:101A70008B120E94C1159091EC018917A9F10E9467
:101A8000C1158093EC012A960FB6F894DEBF0FBE05
:101A9000CDBFDF91CF911F910F91FF90EF90DF901D
:101AA000CF90BF90AF909F908F900C942702B394EB
:101AB000EE0CFF1CFAE0BF12B0CF0F5F1F4F0330D8
:101AC000110509F091CF8FEF89838A831B820E94D1
:101AD000F6168160782F9D838C8349815A816B81B2
:101AE0008D810E942F02C3CF2A960FB6F894DEBFD5
:101AF0000FBECDBFDF91CF911F910F91FF90EF905F
:101B0000DF90CF90BF90AF909F908F900895CF932C
:101B1000DF930E94970EEC01811521E5920708F0F2
:101B200042C0811530E5930708F09DC0883E9105BD
:101B300030F5803E910508F092C0883A910588F40E
:101B4000853A910508F084C08130910509F487C079
:101B5000009709F484C0049708F081C0D0E0C0E089
:101B60007EC08F3B9105D0F7C85AD0E0CC0FDD1F67
:101B7000C65BDE4F0990D881C02DD46470C081153A
:101B8000904250F4C11581E0D80708F068C0CD3EFE
:101B9000D10520F3D06563C0C11590E4D907F0F2F8
:101BA000DF70D06A5CC0811525E5920700F58115CC
:101BB00034E5930708F08BC0811543E5940708F0DE
:101BC00073C0C11582E5D80708F469C0CE018370DF
:101BD000992721E030E002C0220F331F8A95E2F7F7
:101BE000C695C69580E2C89FE001112454C0C11576
:101BF00099E5D907A8F4C11528E5D20708F06CC00B
:101C0000C11536E5D30708F0A9CF8C2F0E942E0FFF
:101C1000C82FD0E0DC2FCC27CC27DF71D0621FC0CB
:101C2000C1154AE5D40708F45CC0CE019056811571
:101C3000904208F093CF8D2F8F710E942E0F90E06D
:101C4000982F882788279F719C012C2BE901E6CFCC
:101C5000C55AD0E0C858DE4FC881D0E0D064CE016C
:101C6000DF91CF910895E4E096958795EA95E1F7A5
:101C700083702C2F26952695237040E2249F900197
:101C80001124382B8C2F8370C1E0D0E002C0CC0F20
:101C9000DD1F8A95E2F7C22BD32BDC68E0CFDC2F67
:101CA000CC27C16FD06ADBCF8370992721E030E069
:101CB00002C0220F331F8A95E2F7C695C69590E2BF
:101CC000C99FE0011124C22BD32BDA68C8CFD82FCB
:101CD000CC27C46FD06AC3CFDC2FCC27C06FD06AAB
:101CE000BECF8C2F8F700E942E0F34E0D695C795F3
:101CF0003A95E1F7CF709C2FEC01D069B0CF972FC8
:101D000070E02AE0929F600D711D1124FB019EE19D
:101D1000899FE00DF11D1124EE0FFF1FE455FF4FC9
:101D20008591949108950E947F0E0C94870D8238BE
:101D30009105B1F1B0F48133910509F475C048F40F
:101D40008932910509F469C08A32910509F473C09A
:101D500008958533910509F459C08933910501F13E
:101D60000895833E9105A9F138F4803E9105F9F07C
:101D7000823E910549F10895863E9105A9F1873E7D
:101D80009105C9F1843E910519F52091260221FFA4
:101D90001FC08091250284FD14C087EE90E0089555
:101DA000209125022370A1F080EE90E0089520910B
:101DB000250220FD47C03091260230FF09C024FFD4
:101DC00044C090E080E004C02091250222FDF7CFBE
:101DD00008952091250222FD3BC03091260230FD5E
:101DE000E3CF24FFF5CFEDCF2091250223FFF0CFE5
:101DF00024FDE7CFD2CF2091250223FD2CC03091C6
:101E0000260231FFEECF84EE90E008952091250266
:101E100025FFDECF89E290E008952091250225FF7D
:101E2000D7CF85E390E008952091250226FFD0CFFB
:101E30008AE290E008952091250226FFC9CF81E330
:101E400090E0089589E390E0089583EE90E008958E
:101E500082EE90E0089586EE90E00895909125023C
:101E600092FF06C0282F28712830F9F4877F8460FC
:101E700093FF06C0282F28712831F1F4877E8461F2
:101E80002091260220FF06C0382F38713830D9F44F
:101E9000877F816021FF06C0282F28712831D1F467
:101EA000877E816194FD877E0895282F24712430D8
:101EB000F9F68B7F8860DCCF282F2471243101F75D
:101EC0008B7E8861DDCF382F3171313019F78E7FED
:101ED0008860E0CF282F2171213121F78E7E886123
:101EE000E1CF80E008950C94E80B0E947C108FE312
:101EF0009CE90197F1F700C000000E947C1080E08F
:101F00000E94B50F80FF04C00E94730F0C9441170C
:101F100008950C94750F0E94EE0B811102C00E946F
:101F2000930C0E94F90B8093FB010E94010C90938B
:101F30002602809325020E94890F0E94FD0B682FC4
:101F400070E090E080E00E945F0660919F017091D8
:101F5000A0018091A1019091A2010C94990608958D
:101F60000C94AF0F08950C94B20FE82FF0E0EE0F31
:101F7000FF1FE35DFD4F808191810895089580EA00
:101F80008A95F1F7089500C008950C94BF0FF89456
:101F9000E82FE295EF70F0E031A1282F2F7081E05B
:101FA00090E001C0880F2A95EAF7982F9095932327
:101FB00091A392A1892B82A378940895CF93DF9364
:101FC00081E30E94C70F83E30E94C70F82E30E9450
:101FD000C70FCBE7D1E089918F3F11F00E94C70F67
:101FE00081E0C538D807B9F7DF91CF910895AF9256
:101FF000BF92DF92EF92FF920F931F93CF93DF93E5
:102000008C01D62EC62FD0E0CE018B579E4F7C017F
:10201000FC0120812F3F09F44DC0F894E22FE29596
:10202000EF70F0E031A12F7081E090E001C0880FE7
:102030002A95EAF7932F982B91A392A18095892353
:1020400082A378940E94C30FEBE7F1E045E851E0EA
:1020500021E030E0B12CA12C61916F3FA9F1A62FB6
:10206000A295AF70B0E090968C9190E06F7002C036
:10207000959587956A95E2F780FD26C0C901A82A43
:10208000B92A220F331F4E175F0731F7F7018081FE
:102090008F3F11F00E94C70F61E0A114B10409F451
:1020A00060E08D2D0E94C50FCC0FDD1FC00FD11F2A
:1020B000B982A882DF91CF911F910F91FF90EF908D
:1020C000DF90BF90AF90089590E080E0D8CF0E945D
:1020D000DE0F86E0EDE2F2E0DF01982F1D929A9587
:1020E000E9F7E7E2F2E0DF011D928A95E9F783E084
:1020F0000E94C7100C94A901FF920F931F93CF93D6
:10210000DF9300D000D000D0CDB7DEB78E010F5FD7
:102110001F4F86E0F80111928A95E9F760E0C80147
:102120000E94F70F61E0C8010E94F70F62E0C8014A
:102130000E94F70F46E050E0B80187E292E00E946B
:102140004E1EFF24F394009709F4F12C892B41F0E3
:1021500086E0F801A7E2B2E001900D928A95E1F7DE
:102160002F2D43E06DE272E087E292E00E94C810FA
:102170000E94AF018F2D26960FB6F894DEBF0FBEDA
:10218000CDBFDF91CF911F910F91FF9008950895DA
:10219000FF920F931F93CF93DF93F82E092F162FE3
:1021A000D72FC42F222349F081E08093FE010E94A3
:1021B000F6169093FD018093FC018091FE01882327
:1021C000A1F08091FC019091FD010E940E170597EE
:1021D00060F0EF2DF02FA12FBD2F90E080E0D0E038
:1021E0008C179D0744F01092FE01DF91CF911F9153
:1021F0000F91FF900895219131912D933D93019678
:10220000EFCF0E94F4180E94CF0C0C9400190E948A
:1022100004190E94D50C0C941E190E947F160E946E
:10222000DB180E94BB0C0E9401110E9407110E9442
:10223000CB0CFBCF8091050280FF12C06091090199
:1022400085E0689FB0011124759567957595679530
:1022500060387105A8F561157105A1F1862F089503
:1022600081FF09C06091090185E0689FB0011124D8
:1022700075956795EDCF6091090182FD0AC0809147
:1022800004028823D1F09091080160910901891717
:1022900028F085E0689FB0011124DACF869FB00155
:1022A000112485E0869F9001879F300D1124692FAE
:1022B00070E0C9010E94201ECBCF65E070E0CECF58
:1022C0008FE7089581E008958091050280FF0CC09A
:1022D0006091050170E07595679575956795611535
:1022E000710549F1862F089581FF06C060910501AF
:1022F00070E075956795F3CF6091050182FD0BC085
:10230000909103029923A1F060910401809105014D
:10231000961738F0682F70E06038710500F38FE78A
:102320000895899FC001112470E00E94201EF4CFFF
:1023300061E070E0D7CF81E008958D3E31F40E94D6
:102340001A1181958093090208958E3E19F40E9416
:102350001A11F8CF8F3E31F40E941A1181958093A3
:1023600008020895803F19F40E941A11F8CF893F9E
:1023700029F40E94641180930A0208958A3F21F48F
:102380000E9464118195F7CF8B3F31F40E94641154
:10239000819580930B0208958C3F19F40E9464117B
:1023A000F8CF9FE0980F983070F4815F990B21E08F
:1023B00030E001C0220F8A95EAF780910702822B54
:1023C0008093070208958D3F31F48091050281606A
:1023D0008093050208958E3F21F48091050282606A
:1023E000F7CF8F3FB9F7809105028460F1CF40911C
:1023F00008028D3E59F48091090287FF0DC01092AA
:10240000090241110BC01092040208C08E3E81F4F3
:102410008091090218169CF3442381F080910A02EE
:1024200090910B02892B09F05AC010920302089573
:102430008F3E49F447FFF0CF1092080280910902C5
:102440008111ECCFE0CF803F19F41416ACF3E4CF48
:1024500090910A02893F29F41916F4F610920A02A3
:10246000DBCF8A3F19F497FFD7CFF8CF90910B02BB
:102470008B3F29F497FFD0CF10920B02CDCF8C3F2A
:1024800019F41916CCF3C8CF9FE0980F983090F448
:10249000815F990B21E030E0B90102C0660F771F20
:1024A0008A95E2F7CB01809590910702892380936A
:1024B0000702B2CF8D3F31F4809105028E7F809369
:1024C0000502AACF8E3F21F4809105028D7FF7CFC0
:1024D0008F3F09F0A1CF809105028B7FF0CF089547
:1024E0000E94F6169C019091080280910902982B97
:1024F00021F0309302022093010290910A02809110
:102500000B02982B21F0309300022093FF0186E00C
:1025100092E00C94D815EF92FF920F931F93CF93F4
:10252000DF9300D000D000D0CDB7DEB786E0E6E084
:10253000F2E0DE01119601900D928A95E1F7E090AC
:102540000802F090090200910A0210910B02109209
:1025500008021092090210920A0210920B028E2DAC
:102560008F2991F080910102909102020E940E1732
:10257000AC0190910402992309F43FC080910A01B3
:102580008417150608F447C0802F812B91F08091A5
:10259000FF01909100020E940E17AC01909103027E
:1025A000992309F477C0809106018417150608F471
:1025B0007FC08091080290910902892B90910A02B4
:1025C000892B90910B02892B11F00E94701286E0EA
:1025D000FE013196A6E0B2E001900D928A95E1F7F6
:1025E00026960FB6F894DEBF0FBECDBFDF91CF9118
:1025F0001F910F91FF90EF90089520910B018AE0B9
:10260000289F900111242417350708F0BDCF9F5F44
:102610009093040202C09F3FD1F7EE2059F00E9430
:102620001A119FEF1E140CF491E0899F802D112444
:1026300080930802FF2059F00E941A119FEF1F1487
:102640000CF491E0899F802D112480930902309130
:102650000802332309F498CF20910902222309F4B8
:1026600093CF45EB3403C0011124992359F0909383
:10267000080245EB240390011124332339F03093F1
:10268000090282CF81E080930802F3CF81E080933A
:1026900009027ACF209107018AE0289F9001112436
:1026A0002417350708F085CF9F5F9093030202C07F
:1026B0009F3FD1F7002359F00E9464119FEF10163D
:1026C0000CF491E0899F802D112480930A0211233C
:1026D00059F00E9464119FEF11160CF491E0899F4C
:1026E000802D112480930B0230910A02332309F4C8
:1026F00060CF20910B02222309F45BCF45EB34031A
:10270000C0011124992359F090930A0245EB240348
:1027100090011124332339F030930B024ACF81E02A
:1027200080930A02F3CF81E080930B0242CF86E0D0
:10273000E6E0F2E0DF011D928A95E9F710920402CB
:1027400010920302109205020895CF93DF93EC01DB
:10275000FB018281882309F420C1C430FDE5DF0735
:10276000C8F5CB3F9CE5D90730F49E0122503C458B
:102770002431310598F50E94010C90932602809334
:102780002502C031FCE5DF0709F4E0C008F061C0B4
:10279000C8309CE5D90709F4CBC088F5C430FCE506
:1027A000DF0709F4B3C0E8F4C2309CE5D90709F4A7
:1027B000A7C0809125028260C330DC4509F4A3C024
:1027C00080912502909126020E940F0C0E9406061D
:1027D00080E004C0C236EDE5DE0769F2DF91CF91FB
:1027E0000895809125028061C630FCE5DF0709F479
:1027F0008AC008F48FC080912502806284C08091D5
:1028000025028D7FCC309CE5D90709F47CC070F49B
:10281000809125028C60CA30FCE5DF0709F473C0A3
:1028200008F48AC0809125028E7F6DC080912502B8
:10283000877FCE309CE5D90709F465C080912502D9
:102840008B7FCF30DC4508F45EC0809125028F7EFF
:102850005AC0CD3FFCE5DF0709F474C040F5C43130
:102860009CE5D90709F48AC058F4C231FCE5DF07BA
:1028700009F474C008F46EC080912502837F43C0C0
:10288000CB3F9CE5D90709F449C008F04DC0C531DC
:10289000DC4509F095CF8091250282FB992790F9BC
:1028A00021E0922790FB82F990FB83F92CC0C13084
:1028B0008DE5D80709F458C088F48091260283601A
:1028C000CF3FECE5DE0769F1809126028D7FC115CF
:1028D000DD4538F1809126028C7F23C0C3308DE521
:1028E000D80709F458C008F452C0C236DD4509F0D3
:1028F00067CF90912502892F8F7E94FF806103C05E
:10290000809125028160809325025ACF8091250213
:102910008460F9CF809125028860F5CF80912602EE
:102920008160809326024CCF809126028260F9CF8D
:10293000809125028064E7CF0E94060680912502DF
:102940008068E1CF809126028E7FEBCF80912502B7
:102950008F7DD9CF809125028F7BD5CF0E9406062F
:10296000809125028F77CFCF80912602982F909566
:1029700091708E7F892B90FB81F9D3CF0E94060640
:1029800090912502892F97FB87F98058BCCF81E071
:102990000E94950C15CF80E0FBCF81E01FCFCF9335
:1029A000DF93EB0186319C4511F50E94140B9A814F
:1029B000992399F08A7A91E009F490E090930C02BF
:1029C000811109C089E20E94EF0A0E94570B80E042
:1029D000DF91CF91089585E3F6CF80910C028111AC
:1029E00004C089E20E94F60AF0CF85E3FBCF81E0C4
:1029F000EFCF0F931F93CF93DF93C42FD22FFC0100
:102A000082818823C9F040930F020E94F6169093AA
:102A10000E0280930D0280E28C0F883008F050C0C7
:102A2000C77081E001C0880FCA95EAF7DF91CF91A6
:102A30001F910F910C94790310910F02141335C05C
:102A400080910D0290910E020E940E17883C910514
:102A500060F5C0E2CD0F1D17B9F080E2810F88301C
:102A600040F4177081E001C0880F1A95EAF70E94C0
:102A70008003C83048F481E09D2F977001C0880F13
:102A80009A95EAF70E947903802F0E947103C8305B
:102A9000B8F4D77081E001C0880FDA95EAF7DF91CA
:102AA000CF911F910F910C94800380E28C0F88309E
:102AB00038F4C77081E001C0880FCA95EAF7EFCFFC
:102AC000DF91CF911F910F9108950F939C01CB013E
:102AD000243F4CE5340759F1A8F4293DFCE53F07B4
:102AE00001F12A3D4CE53407D1F1283D3C4591F4F4
:102AF00006E221EE41EE68ED7CE50E94F91480E0EB
:102B00000F910895263FFCE53F07E9F0B0F0273F1D
:102B10003C45F9F0FC018281882339F110920F02C3
:102B2000EFCF07E225EE45EE69ED7CE5E6CF06E264
:102B300021EE40EE64EF7CE5E0CF07E225EE44EEC7
:102B400065EF7CE5DACF06E221EE42EE66EF7CE54A
:102B5000D4CF07E225EE46EE67EF7CE5CECF08E264
:102B600021E045EE6AED7CE5C8CF81E0C9CF9093C6
:102B7000890180938801089590931502809314022F
:102B80000895E0911402F0911502309721F0019020
:102B9000F081E02D099480E00895E0911402F09115
:102BA0001502309721F00280F381E02D09940895F9
:102BB000E0911402F0911502309739F022E0DC0127
:102BC0002C930480F581E02D099408952091120240
:102BD000309113022817390771F0909313028093F4
:102BE0001202E0911402F0911502309721F0068054
:102BF000F781E02D0994089520911002309111027F
:102C00002817390771F09093110280931002E09118
:102C10001402F0911502309721F00084F185E02D27
:102C2000099408959C012E5F3F4FAC01485F5F4FB0
:102C300080E02417350709F40895F90191919F0167
:102C40009923B9F38F5FF5CF662349F0FC013296E3
:102C500008962191261729F0E817F907D1F780E0A7
:102C6000089581E008959C01FC0132969FEF80E079
:102C70004191461751F09F3F19F4411101C0982F1F
:102C80008F5F8630A9F79F3F09F40895290F311D02
:102C900097FD3A95F90162830895FC0132960896F2
:102CA0002191261303C0DF0111971C92E817F90741
:102CB000B9F708950C9433160C944D16029626E03D
:102CC000FC0111922A95E9F7089508950C94651670
:102CD000811105C081E0809316020C94661682E093
:102CE000FACF83E0809316020C9466160C94681653
:102CF00081E0809316020C9466160C947816089561
:102D000080913B02843031F10E94B1011092170290
:102D100088E190E020E40FB6F894A89580936000D5
:102D20000FBE2093600083B7817F846083BF83B729
:102D3000816083BF7894889583B78E7F83BF0FB6F9
:102D4000F894A8958091600088618093600010924B
:102D500060000FBE089508950895CF930E94AB16AA
:102D60000E947C100E94AC16C0E08C2F0E94B50F10
:102D7000892B31F4CF5FC330C1F780E0CF91089544
:102D800081E0FCCF0E9406060C9419021F921FB628
:102D90001F9211248F939F93AF93BF93809117023B
:102DA000811113C08091330290913402A0913502B9
:102DB000B09136024196A11DB11D809333029093CC
:102DC0003402A0933502B0933602BF91AF919F9128
:102DD0008F911F901FBE1F90189582E084BD93E0D5
:102DE00095BD9AEF97BD80936E0008952FB7F89424
:102DF0008091330290913402A0913502B091360255
:102E00002FBF08952FB7F894609133027091340268
:102E100080913502909136022FBF08959C014FB7E3
:102E2000F8948091330290913402A0913502B091D0
:102E300036024FBF821B930B089578941F921FB6E2
:102E40001F9211248F939F93AF93BF93809133026E
:102E500090913402A0913502B09136020196A11DE5
:102E6000B11D8093330290933402A0933502B09346
:102E70003602BF91AF919F918F911F901FBE1F90FF
:102E8000189581E08093E00080E28093D800109252
:102E9000C9008FE19EE40197F1F700C0000087E0D0
:102EA00090EBDC018093440290934502A09346028C
:102EB000B093470288E19CE00FB6F894A895809300
:102EC00060000FBE90936000FFCF809123020895B1
:102ED00008959C0182E08093E9009FEF8091E800D3
:102EE000915085FD06C085ED8A95F1F7000091119E
:102EF000F5CF8091E80085FF0CC050E040E066E02F
:102F000070E0C9010E948F198091E8008E7780934C
:102F1000E8000895CF93DF93EC0181E08093E9000E
:102F20008FEF9091E800815095FD06C095ED9A9540
:102F3000F1F700008111F5CF8091E80085FF14C002
:102F400050E040E068E070E0CE010E948F1980916F
:102F5000E8008E778093E80088E0FE01ABE1B2E004
:102F600001900D928A95E1F7DF91CF9108958093BA
:102F7000180270931A026093190280913B02843008
:102F800001F582E08093E9008FEF9091E800815095
:102F900095FD06C095ED9A95F1F700008111F5CFEA
:102FA0008091E80085FF0DC050E040E063E070E0F4
:102FB00088E192E00E948F198091E8008E778093DB
:102FC000E8000895BC0184E00C94B717BC0183E0CD
:102FD0000C94B71780913A02811109C00E941F1BFF
:102FE0000E947C1B8091E20084608093E20008953F
:102FF00010923A0208950C9478166091370281E09D
:10300000611101C080E00C94711690913B0281E047
:10301000943009F080E0609137020C94761642E01B
:1030200061EC81E00E949B1A42E261EC82E00E9426
:103030009B1A90913B0281E0943009F080E060910E
:1030400037020C94681680913D02833009F460C009
:1030500030F48130C9F1823009F49CC008958A307F
:1030600009F488C08B3009F46EC0893009F04FC074
:1030700080913C02813209F04AC0809140029091D7
:103080004102029708F043C08091E800877F809357
:10309000E8008091E80082FF36C09091F3008091B3
:1030A000F200029731F48091F100813011F0863006
:1030B00021F48091F100809323028091E8008B77C6
:1030C0008093E8000C94CF1A80913C02813AF9F485
:1030D0008091E800877F8093E80080914002909182
:1030E0004102892B61F468E08BE192E070E00E947C
:1030F000DE198091E8008B778093E800089560E006
:1031000090E080E0F3CF80913B028111C2CF08951F
:1031100080913C02813AD9F780914002909141021E
:10312000892BA9F78091E800877F8093E800809140
:10313000E80080FFFCCF809118018093F10080911E
:10314000E8008E77BDCF80913C02813201F78091FB
:10315000400290914102892BD1F68091E800877F4F
:103160008093E8000E94CF1A80913E02809318015C
:103170000C94060680913C02813249F68091E80069
:10318000877F8093E8000E94CF1A80913F0280934E
:103190002402089580913C02813A09F0B8CF8091D1
:1031A000E800877F8093E8008091E80080FFFCCFF3
:1031B00080912402C2CF84B7877F84BF0FB6F89472
:1031C000A8958091600088618093600010926000F3
:1031D0000FBE80E890E00FB6F89480936100909362
:1031E00061000FBE0C947D160E941F1B0E947C1B69
:1031F000E2EEF0E080818460808378940C94051E78
:103200008CE091E00C94BC1580913B028530A9F4D0
:1032100080913B02853011F00C94C2160E948016FA
:10322000809139028823A1F30E94AD16882381F38F
:103230000E9479190E940606EBCF089508950C9418
:103240002119292F33272330310519F168F4213052
:10325000310509F444C02230310509F445C090E03D
:1032600080E030E020E025C02132310549F12232F2
:103270003105A9F780E490E02CED31E0611571058E
:10328000C1F08BE790E021E631E06130710589F013
:10329000E6CF99278130910581F0009729F00297B8
:1032A000F1F6E8EEF0E002C0E0E1F1E0849190E0B8
:1032B0009F01FA01318320830895ECEFF0E0F6CF0F
:1032C00089E090E026E231E06115710591F389E033
:1032D00090E02FE331E06130710559F3C0CF82E116
:1032E00090E02FE431E0E5CF8BE390E024E131E0A2
:1032F000E0CF80E189BD82E189BD09B400FEFDCF48
:103300008091D8008F7D8093D8008091E00082600A
:103310008093E0008091E00081FDFCCF0895AF92A2
:10332000BF92CF92DF92FF920F931F93CF93DF93C1
:103330006C01EB018A010E94EE1AF82E811123C064
:103340000115110539F0F80180819181C81BD90B55
:10335000C80ED91EB12CA12C2097A9F08091E800AD
:1033600085FD22C08091E8008E778093E8000115EA
:103370001105A1F0F80180819181A80EB91EB182DA
:10338000A08285E0F82E8F2DDF91CF911F910F91B4
:10339000FF90DF90CF90BF90AF9008950E94EE1AFB
:1033A0008823D1F2F82EEFCFF60181916F0180933F
:1033B000F1002197FFEFAF1ABF0ACECFFC01809139
:1033C00042029091430286179707A0F0611571059C
:1033D00029F49091E8009E779093E80090E06115C1
:1033E000710551F4911108C08091E80082FF34C04A
:1033F00080E00895BC01F2CF80913B028823C1F1A7
:103400008530C1F18091E80083FD30C08091E800F3
:1034100082FDEACF8091E80080FFE1CF8091F30048
:103420002091F200382F6115710519F0283031050F
:1034300058F091E02830310509F090E02091E80043
:103440002E772093E800CBCF81918093F1006150DB
:1034500071092F5F3F4FE7CF80913B02882341F0F6
:10346000853041F08091E80083FFBECF81E0089570
:1034700082E0089583E00895FC01809142029091DA
:10348000430286179707A0F06115710529F4809112
:10349000E8008E778093E80090E06115710551F4A3
:1034A000911108C08091E80082FF35C080E0089546
:1034B000BC01F2CF80913B028823C9F18530C9F16C
:1034C0008091E80083FD31C08091E80082FDEACF61
:1034D0008091E80080FFE1CF8091F3002091F2001D
:1034E000382F6115710519F02830310558F091E039
:1034F0002830310509F090E08091E8008E778093C4
:10350000E800CBCF84918093F1003196615071092E
:103510002F5F3F4FE6CF80913B02882341F08530FB
:1035200041F08091E80083FFBDCF81E0089582E003
:10353000089583E00895982F973028F08F70809336
:10354000E90081E008959093E900242F762F50E060
:10355000981731F07091EC002091ED005091F0003F
:1035600021FD02C09F5FE8CF3091EB003E7F30939A
:10357000EB003091ED003D7F3093ED003091EB009A
:1035800031603093EB007093EC002093ED0050938A
:10359000F0002091EE0027FDE5CF80E008958091B6
:1035A0003C0287FF13C08091E80082FF06C0809133
:1035B000E8008B778093E80004C080913B02811182
:1035C000F2CF089580913B028823D9F38091E800DF
:1035D00080FFF8CF8091E8008E77ECCF2091E40057
:1035E0003091E50095E6A9012091EC00822F8170D1
:1035F00020FF06C08091E80080FF06C080E00895AB
:103600002091E80022FD1AC080913B02882389F0B6
:10361000853089F08091EB0085FD0FC02091E4009A
:103620003091E50042175307F9F29150E1F684E03A
:10363000089582E0089583E0089581E008950E944E
:103640008D1B0E94951BE0EEF0E0808181608083FD
:10365000E8EDF0E080818F77808319BCA7EDB0E0C2
:103660008C918E7F8C9380818F7E808310923A0222
:1036700008950F931F93CF93DF930E948D1B0E9499
:10368000951BC8EDD0E088818F778883888180681A
:10369000888388818F7D888319BC10923B021092A9
:1036A0003702109239021092380200EE10E0F80151
:1036B00080818B7F808388818160888342E060E0A5
:1036C00080E00E949B1AE1EEF0E080818E7F808393
:1036D000E2EEF0E080818160808380818860808379
:1036E000F80180818E7F8083888180618883DF916B
:1036F000CF911F910F910895E8EDF0E080818F7ECA
:103700008083E7EDF0E080818160808384E082BF88
:1037100081E080933A020C94391BE8EDF0E080815F
:103720008E7F80831092E20008951092DA0010924A
:10373000E10008951F920F920FB60F9211242F935C
:103740003F934F935F936F937F938F939F93AF9329
:10375000BF93EF93FF938091E10082FF0BC08091B4
:10376000E20082FF07C08091E1008B7F8093E1003F
:103770000E94041E8091DA0080FF19C08091D80059
:1037800080FF15C08091DA008E7F8093DA008091EF
:10379000D90080FF96C080E189BD82E189BD09B46E
:1037A00000FEFDCF81E080933B020E94EA178091EA
:1037B000E10080FF19C08091E20080FF15C0809178
:1037C000E2008E7F8093E2008091E200806180932E
:1037D000E2008091D80080628093D80019BC85E017
:1037E00080933B020E94FD178091E10084FF2BC073
:1037F0008091E20084FF27C080E189BD82E189BD1C
:1038000089B5982F917080FFFBCF8091D8008F7D74
:103810008093D8008091E1008F7E8093E1008091B9
:10382000E2008F7E8093E2008091E20081608093CD
:10383000E20080913702882309F449C084E0809334
:103840003B020E9405188091E10083FF29C080910E
:10385000E20083FF25C08091E100877F8093E10033
:1038600082E080933B02109237028091E1008E7FCC
:103870008093E1008091E2008E7F8093E20080914E
:10388000E20080618093E20042E060E080E00E941C
:103890009B1A8091F00088608093F0000E94FB17D3
:1038A000FF91EF91BF91AF919F918F917F916F9118
:1038B0005F914F913F912F910F900FBE0F901F90EE
:1038C000189519BC10923B020E94F81770CF809196
:1038D000E30087FD93E090933B02B3CF1F920F92DA
:1038E0000FB60F9211242F933F934F935F936F93D3
:1038F0007F938F939F93AF93BF93CF93DF93EF9378
:10390000FF93D091E900DF708091EC00C82FC17067
:1039100080FDC0E81092E9008091F000877F8093DD
:10392000F00078940E94B21C1092E9008091F0009F
:1039300088608093F000CD2BCF70C093E900FF9199
:10394000EF91DF91CF91BF91AF919F918F917F9137
:103950006F915F914F913F912F910F900FBE0F90FC
:103960001F9018951F93CF93DF93CDB7DEB7AA971B
:103970000FB6F894DEBF0FBECDBF8CE392E020916E
:10398000F100FC012193CF01F2E084349F07B9F7E5
:103990000E9423188091E80083FF1EC180913C02A1
:1039A00090913D029A3008F017C1E92FF0E0E754FA
:1039B000F14E0C94341E803899F0823809F00CC115
:1039C000809140028F70873008F006C18093E90033
:1039D0008091EB0085FB882780F91092E90006C0F2
:1039E0008091380290913902911182609091E800A3
:1039F000977F9093E8008093F1001092F1008091FE
:103A0000E8008E77E5C0882309F4D3C0823009F03E
:103A1000E3C080913E028111D6C0809140028F7038
:103A20002FEF280F263008F0D7C08093E9002091AF
:103A3000EB0020FFC8C0933031F48091EB0080622E
:103A40008093EB00C0C09091EB0090619093EB00ED
:103A500021E030E001C0220F8A95EAF72093EA00C6
:103A60001092EA008091EB008860EACF8111B4C027
:103A700010913E021F778091E3008078812B809324
:103A8000E3008091E800877F8093E8000E94CF1ACE
:103A90008091E80080FFFCCF8091E30080688093F4
:103AA000E30082E0111183E080933B0295C08058CF
:103AB000823008F091C080913E0290913F028C3D8F
:103AC00023E09207A1F583E08A838AE289834FB7D6
:103AD000F894DE01139620E03EE051E2E32FF0E09F
:103AE00050935700E49120FF03C0E295EF703F5FD1
:103AF000EF708E2F90E0EA30C0F0C7968D939D93C3
:103B00002F5F243159F74FBF8091E800877F809362
:103B1000E8006AE270E0CE0101960E94DE19809111
:103B2000E8008B778093E80057C0C096E7CF60919C
:103B3000400270914102AE014F5F5F4F0E941F191A
:103B4000BC01892B09F448C09091E800977F9093BD
:103B5000E80089819A810E943C1AE1CF8038E1F522
:103B60008091E800877F8093E800809137028093FE
:103B7000F10045CF811130C090913E02923060F546
:103B80008091E800877F8093E800909337020E943D
:103B9000CF1A80913702882311F084E005C080910C
:103BA000E30087FDFACF81E080933B020E940F186B
:103BB00013C080913E02813079F481E0933009F0A6
:103BC00080E0809339021092E9008091E800877FBD
:103BD0008093E8000E94CF1A8091E80083FF0AC01A
:103BE0008091E800877F8093E8008091EB008062FD
:103BF0008093EB00AA960FB6F894DEBF0FBECDBF40
:103C0000DF91CF911F9108950895CF9380913B024A
:103C10008823A1F0C091E900CF709091EC00892F2A
:103C2000817090FD80E8C82B1092E9008091E80037
:103C300083FD0E94B21CCF70C093E900CF9108951C
:103C400097FB072E16F4009407D077FD09D00E9449
:103C50003A1E07FC05D03EF4909581959F4F08953C
:103C6000709561957F4F0895EE0FFF1F0590F491B9
:103C7000E02D0994AA1BBB1B51E107C0AA1FBB1F63
:103C8000A617B70710F0A61BB70B881F991F5A95E8
:103C9000A9F780959095BC01CD010895FB01DC0149
:103CA00004C08D910190801921F441505040C8F713
:103CB000881B990B0895F999FECF92BD81BDF89AA2
:103CC000992780B50895A8E1B0E042E050E00C9457
:103CD0008F1E262FF999FECF92BD81BDF89A0197CC
:103CE00000B4021639F01FBA20BD0FB6F894FA9A44
:103CF000F99A0FBE08950396272F0E946A1E0E940C
:103D0000691E252F0E946A1E242F0C946A1E01969C
:103D1000272F0E946A1E0C94691EDC01CB01FC0156
:103D2000F999FECF06C0F2BDE1BDF89A319600B414
:103D30000D9241505040B8F70895F894FFCFC50355
:103D4000C503F603F6038904A50425042504B0047D
:103D50003C054B054B05150615061E061E062006DE
:103D60001E061E061E061506150625061E061E063E
:103D70002506DB1C031DEC1D031DEC1D361D571D08
:063D8000EC1DAE1DBA1D92
:103D8600C800E1012808641E140A321E65178A1746
:103D96006917E617E217681701E200E900EA00B5BD
:103DA60000B600B700CD008301CC008A01920194D1
:103DB600012102230224022502260227022A02B337
:103DC60000B4006F007000818283E200E900EA001F
:103DD600B500B600B700CD008301CC008A01920180
:103DE60094012102230224022502260227022A0226
:103DF600B300B4006F00700081828391909466973F
:083E0600C63435F736313332C2
:00000001FF
